{
  "contractName": "Mercure",
  "abi": [
    {
      "constant": true,
      "inputs": [],
      "name": "owner",
      "outputs": [
        {
          "name": "",
          "type": "address"
        }
      ],
      "payable": false,
      "stateMutability": "view",
      "type": "function"
    },
    {
      "constant": true,
      "inputs": [],
      "name": "price",
      "outputs": [
        {
          "name": "",
          "type": "uint256"
        }
      ],
      "payable": false,
      "stateMutability": "view",
      "type": "function"
    },
    {
      "inputs": [
        {
          "name": "_price",
          "type": "uint256"
        }
      ],
      "payable": false,
      "stateMutability": "nonpayable",
      "type": "constructor"
    },
    {
      "anonymous": false,
      "inputs": [
        {
          "indexed": false,
          "name": "from",
          "type": "address"
        },
        {
          "indexed": false,
          "name": "to",
          "type": "string"
        },
        {
          "indexed": false,
          "name": "content",
          "type": "string"
        }
      ],
      "name": "Notification",
      "type": "event"
    },
    {
      "constant": false,
      "inputs": [
        {
          "name": "_newOwner",
          "type": "address"
        }
      ],
      "name": "changeOwner",
      "outputs": [],
      "payable": false,
      "stateMutability": "nonpayable",
      "type": "function"
    },
    {
      "constant": false,
      "inputs": [],
      "name": "withdraw",
      "outputs": [],
      "payable": false,
      "stateMutability": "nonpayable",
      "type": "function"
    },
    {
      "constant": false,
      "inputs": [
        {
          "name": "_price",
          "type": "uint256"
        }
      ],
      "name": "setPrice",
      "outputs": [],
      "payable": false,
      "stateMutability": "nonpayable",
      "type": "function"
    },
    {
      "constant": true,
      "inputs": [],
      "name": "getPrice",
      "outputs": [
        {
          "name": "",
          "type": "uint256"
        }
      ],
      "payable": false,
      "stateMutability": "view",
      "type": "function"
    },
    {
      "constant": false,
      "inputs": [
        {
          "name": "_to",
          "type": "string"
        },
        {
          "name": "content",
          "type": "string"
        }
      ],
      "name": "sendNotification",
      "outputs": [],
      "payable": true,
      "stateMutability": "payable",
      "type": "function"
    }
  ],
  "bytecode": "0x6060604052341561000f57600080fd5b60405160208061063683398101604052808051906020019091905050336000806101000a81548173ffffffffffffffffffffffffffffffffffffffff021916908373ffffffffffffffffffffffffffffffffffffffff16021790555080600181905550506105b4806100826000396000f300606060405260043610610083576000357c0100000000000000000000000000000000000000000000000000000000900463ffffffff1680633ccfd60b146100885780637f20787a1461009d5780638da5cb5b1461013257806391b7f5ed1461018757806398d5fdca146101aa578063a035b1fe146101d3578063a6f9dae1146101fc575b600080fd5b341561009357600080fd5b61009b610235565b005b610130600480803590602001908201803590602001908080601f0160208091040260200160405190810160405280939291908181526020018383808284378201915050505050509190803590602001908201803590602001908080601f01602080910402602001604051908101604052809392919081815260200183838082843782019150505050505091905050610307565b005b341561013d57600080fd5b610145610456565b604051808273ffffffffffffffffffffffffffffffffffffffff1673ffffffffffffffffffffffffffffffffffffffff16815260200191505060405180910390f35b341561019257600080fd5b6101a8600480803590602001909190505061047b565b005b34156101b557600080fd5b6101bd6104dd565b6040518082815260200191505060405180910390f35b34156101de57600080fd5b6101e66104e7565b6040518082815260200191505060405180910390f35b341561020757600080fd5b610233600480803573ffffffffffffffffffffffffffffffffffffffff169060200190919050506104ed565b005b6000809054906101000a900473ffffffffffffffffffffffffffffffffffffffff1673ffffffffffffffffffffffffffffffffffffffff163373ffffffffffffffffffffffffffffffffffffffff1614151561028d57fe5b6000809054906101000a900473ffffffffffffffffffffffffffffffffffffffff1673ffffffffffffffffffffffffffffffffffffffff166108fc3073ffffffffffffffffffffffffffffffffffffffff16319081150290604051600060405180830381858888f19350505050151561030557600080fd5b565b600154341015151561031557fe5b7f847494b164a5d936692654c5e7edf1f17c579f628c79fe89b1ce7b72d1eafcc5338383604051808473ffffffffffffffffffffffffffffffffffffffff1673ffffffffffffffffffffffffffffffffffffffff1681526020018060200180602001838103835285818151815260200191508051906020019080838360005b838110156103af578082015181840152602081019050610394565b50505050905090810190601f1680156103dc5780820380516001836020036101000a031916815260200191505b50838103825284818151815260200191508051906020019080838360005b838110156104155780820151818401526020810190506103fa565b50505050905090810190601f1680156104425780820380516001836020036101000a031916815260200191505b509550505050505060405180910390a15050565b6000809054906101000a900473ffffffffffffffffffffffffffffffffffffffff1681565b6000809054906101000a900473ffffffffffffffffffffffffffffffffffffffff1673ffffffffffffffffffffffffffffffffffffffff163373ffffffffffffffffffffffffffffffffffffffff161415156104d357fe5b8060018190555050565b6000600154905090565b60015481565b6000809054906101000a900473ffffffffffffffffffffffffffffffffffffffff1673ffffffffffffffffffffffffffffffffffffffff163373ffffffffffffffffffffffffffffffffffffffff1614151561054557fe5b806000806101000a81548173ffffffffffffffffffffffffffffffffffffffff021916908373ffffffffffffffffffffffffffffffffffffffff160217905550505600a165627a7a7230582072b56e6a51806dfbb10855fd6c8b47787cf874a742725da72aab5d469d099a050029",
  "source": "pragma solidity ^0.4.17;\n\ncontract Mercure {\n  address public owner;\n  uint public price;\n\n  event Notification(address from, string to, string content);\n\n  modifier paid() {\n    assert(msg.value >= price);\n    _;\n  }\n\n  modifier restricted() {\n    assert(msg.sender == owner);\n    _;\n  }\n\n  function Mercure(uint _price) \n    public \n  {\n    owner = msg.sender;\n    price = _price;\n  }\n\n  function changeOwner(address _newOwner)\n      public\n      restricted\n  {\n      owner = _newOwner;\n  }\n\n  function withdraw() public restricted {\n      owner.transfer(this.balance);\n  }\n\n  function setPrice(uint _price) public restricted {\n    price = _price;\n  }\n\n  function getPrice() public view returns( uint ) {\n    return price;\n  }\n\n  function sendNotification(string _to, string content) public payable paid {\n    Notification(msg.sender, _to, content);\n  }\n}",
  "sourcePath": "/home/raulns/workspace/mercure/packages/mercure-server/contracts/Mercure.sol",
  "compiler": {
    "name": "solc",
    "version": "0.4.19+commit.c4cbbb05.Emscripten.clang"
  },
  "schemaVersion": "1.0.1",
  "updatedAt": "2018-03-04T09:32:56.083Z"
}